{
  "_format": "hh-sol-artifact-1",
  "contractName": "L2_Pool",
  "sourceName": "contracts/L2_Pool.sol",
  "abi": [
    {
      "inputs": [
        {
          "internalType": "contract L2DepositedERC20",
          "name": "_oDAI",
          "type": "address"
        },
        {
          "internalType": "address",
          "name": "_L1Pool",
          "type": "address"
        },
        {
          "internalType": "address",
          "name": "_l2CrossDomainMessenger",
          "type": "address"
        }
      ],
      "stateMutability": "nonpayable",
      "type": "constructor"
    },
    {
      "anonymous": false,
      "inputs": [
        {
          "indexed": true,
          "internalType": "address",
          "name": "_owner",
          "type": "address"
        },
        {
          "indexed": true,
          "internalType": "address",
          "name": "_spender",
          "type": "address"
        },
        {
          "indexed": false,
          "internalType": "uint256",
          "name": "_value",
          "type": "uint256"
        }
      ],
      "name": "Approval",
      "type": "event"
    },
    {
      "anonymous": false,
      "inputs": [
        {
          "indexed": false,
          "internalType": "address",
          "name": "from",
          "type": "address"
        },
        {
          "indexed": false,
          "internalType": "uint256",
          "name": "deposit",
          "type": "uint256"
        },
        {
          "indexed": false,
          "internalType": "uint256",
          "name": "poolTokens",
          "type": "uint256"
        }
      ],
      "name": "Deposit",
      "type": "event"
    },
    {
      "anonymous": false,
      "inputs": [
        {
          "indexed": true,
          "internalType": "address",
          "name": "_from",
          "type": "address"
        },
        {
          "indexed": true,
          "internalType": "address",
          "name": "_to",
          "type": "address"
        },
        {
          "indexed": false,
          "internalType": "uint256",
          "name": "_value",
          "type": "uint256"
        }
      ],
      "name": "Transfer",
      "type": "event"
    },
    {
      "anonymous": false,
      "inputs": [
        {
          "indexed": false,
          "internalType": "address",
          "name": "to",
          "type": "address"
        },
        {
          "indexed": false,
          "internalType": "uint256",
          "name": "amount",
          "type": "uint256"
        }
      ],
      "name": "Withdrawal",
      "type": "event"
    },
    {
      "inputs": [],
      "name": "L1_Pool",
      "outputs": [
        {
          "internalType": "address",
          "name": "",
          "type": "address"
        }
      ],
      "stateMutability": "view",
      "type": "function"
    },
    {
      "inputs": [
        {
          "internalType": "address",
          "name": "_owner",
          "type": "address"
        },
        {
          "internalType": "address",
          "name": "_spender",
          "type": "address"
        }
      ],
      "name": "allowance",
      "outputs": [
        {
          "internalType": "uint256",
          "name": "",
          "type": "uint256"
        }
      ],
      "stateMutability": "view",
      "type": "function"
    },
    {
      "inputs": [
        {
          "internalType": "address",
          "name": "",
          "type": "address"
        },
        {
          "internalType": "address",
          "name": "",
          "type": "address"
        }
      ],
      "name": "allowances",
      "outputs": [
        {
          "internalType": "uint256",
          "name": "",
          "type": "uint256"
        }
      ],
      "stateMutability": "view",
      "type": "function"
    },
    {
      "inputs": [
        {
          "internalType": "address",
          "name": "_spender",
          "type": "address"
        },
        {
          "internalType": "uint256",
          "name": "_amount",
          "type": "uint256"
        }
      ],
      "name": "approve",
      "outputs": [
        {
          "internalType": "bool",
          "name": "",
          "type": "bool"
        }
      ],
      "stateMutability": "nonpayable",
      "type": "function"
    },
    {
      "inputs": [
        {
          "internalType": "address",
          "name": "_owner",
          "type": "address"
        }
      ],
      "name": "balanceOf",
      "outputs": [
        {
          "internalType": "uint256",
          "name": "",
          "type": "uint256"
        }
      ],
      "stateMutability": "view",
      "type": "function"
    },
    {
      "inputs": [
        {
          "internalType": "address",
          "name": "",
          "type": "address"
        }
      ],
      "name": "balances",
      "outputs": [
        {
          "internalType": "uint256",
          "name": "",
          "type": "uint256"
        }
      ],
      "stateMutability": "view",
      "type": "function"
    },
    {
      "inputs": [
        {
          "internalType": "uint256",
          "name": "amount",
          "type": "uint256"
        }
      ],
      "name": "deposit",
      "outputs": [
        {
          "internalType": "uint256",
          "name": "",
          "type": "uint256"
        }
      ],
      "stateMutability": "nonpayable",
      "type": "function"
    },
    {
      "inputs": [],
      "name": "messenger",
      "outputs": [
        {
          "internalType": "address",
          "name": "",
          "type": "address"
        }
      ],
      "stateMutability": "view",
      "type": "function"
    },
    {
      "inputs": [],
      "name": "name",
      "outputs": [
        {
          "internalType": "string",
          "name": "",
          "type": "string"
        }
      ],
      "stateMutability": "view",
      "type": "function"
    },
    {
      "inputs": [],
      "name": "oDAI",
      "outputs": [
        {
          "internalType": "contract L2DepositedERC20",
          "name": "",
          "type": "address"
        }
      ],
      "stateMutability": "view",
      "type": "function"
    },
    {
      "inputs": [],
      "name": "totalSupply",
      "outputs": [
        {
          "internalType": "uint256",
          "name": "",
          "type": "uint256"
        }
      ],
      "stateMutability": "view",
      "type": "function"
    },
    {
      "inputs": [
        {
          "internalType": "address",
          "name": "_to",
          "type": "address"
        },
        {
          "internalType": "uint256",
          "name": "_amount",
          "type": "uint256"
        }
      ],
      "name": "transfer",
      "outputs": [
        {
          "internalType": "bool",
          "name": "",
          "type": "bool"
        }
      ],
      "stateMutability": "nonpayable",
      "type": "function"
    },
    {
      "inputs": [
        {
          "internalType": "address",
          "name": "_from",
          "type": "address"
        },
        {
          "internalType": "address",
          "name": "_to",
          "type": "address"
        },
        {
          "internalType": "uint256",
          "name": "_amount",
          "type": "uint256"
        }
      ],
      "name": "transferFrom",
      "outputs": [
        {
          "internalType": "bool",
          "name": "",
          "type": "bool"
        }
      ],
      "stateMutability": "nonpayable",
      "type": "function"
    },
    {
      "inputs": [
        {
          "internalType": "uint256",
          "name": "amount",
          "type": "uint256"
        }
      ],
      "name": "withdraw",
      "outputs": [],
      "stateMutability": "nonpayable",
      "type": "function"
    }
  ],
  "bytecode": "0x60806040523480156200001157600080fd5b5060405162001da738038062001da783398181016040528101906200003791906200026a565b80600060405180606001604052806021815260200162001d8660219139816000803373ffffffffffffffffffffffffffffffffffffffff1673ffffffffffffffffffffffffffffffffffffffff16815260200190815260200160002081905550816002819055508060039080519060200190620000b692919062000186565b50505080600460006101000a81548173ffffffffffffffffffffffffffffffffffffffff021916908373ffffffffffffffffffffffffffffffffffffffff1602179055505082600560006101000a81548173ffffffffffffffffffffffffffffffffffffffff021916908373ffffffffffffffffffffffffffffffffffffffff16021790555081600660006101000a81548173ffffffffffffffffffffffffffffffffffffffff021916908373ffffffffffffffffffffffffffffffffffffffff1602179055505050506200033c565b828054600181600116156101000203166002900490600052602060002090601f016020900481019282620001be57600085556200020a565b82601f10620001d957805160ff19168380011785556200020a565b828001600101855582156200020a579182015b8281111562000209578251825591602001919060010190620001ec565b5b5090506200021991906200021d565b5090565b5b80821115620002385760008160009055506001016200021e565b5090565b6000815190506200024d8162000308565b92915050565b600081519050620002648162000322565b92915050565b6000806000606084860312156200028057600080fd5b6000620002908682870162000253565b9350506020620002a3868287016200023c565b9250506040620002b6868287016200023c565b9150509250925092565b6000620002cd82620002e8565b9050919050565b6000620002e182620002c0565b9050919050565b600073ffffffffffffffffffffffffffffffffffffffff82169050919050565b6200031381620002c0565b81146200031f57600080fd5b50565b6200032d81620002d4565b81146200033957600080fd5b50565b611a3a806200034c6000396000f3fe608060405234801561001057600080fd5b50600436106100ea5760003560e01c806355b6ed5c1161008c578063b6b55f2511610066578063b6b55f2514610285578063c9728c28146102b5578063dd62ed3e146102d3578063ed5cec3a14610303576100ea565b806355b6ed5c146101f557806370a0823114610225578063a9059cbb14610255576100ea565b806323b872dd116100c857806323b872dd1461015b57806327e235e31461018b5780632e1a7d4d146101bb5780633cb747bf146101d7576100ea565b806306fdde03146100ef578063095ea7b31461010d57806318160ddd1461013d575b600080fd5b6100f7610321565b6040516101049190611705565b60405180910390f35b61012760048036038101906101229190611478565b6103bf565b60405161013491906116cf565b60405180910390f35b6101456104b1565b6040516101529190611747565b60405180910390f35b61017560048036038101906101709190611429565b6104b7565b60405161018291906116cf565b60405180910390f35b6101a560048036038101906101a091906113c4565b61072d565b6040516101b29190611747565b60405180910390f35b6101d560048036038101906101d091906114dd565b610745565b005b6101df6108ac565b6040516101ec9190611602565b60405180910390f35b61020f600480360381019061020a91906113ed565b6108d2565b60405161021c9190611747565b60405180910390f35b61023f600480360381019061023a91906113c4565b6108f7565b60405161024c9190611747565b60405180910390f35b61026f600480360381019061026a9190611478565b61093f565b60405161027c91906116cf565b60405180910390f35b61029f600480360381019061029a91906114dd565b610adf565b6040516102ac9190611747565b60405180910390f35b6102bd610ec3565b6040516102ca91906116ea565b60405180910390f35b6102ed60048036038101906102e891906113ed565b610ee9565b6040516102fa9190611747565b60405180910390f35b61030b610f70565b6040516103189190611602565b60405180910390f35b60038054600181600116156101000203166002900480601f0160208091040260200160405190810160405280929190818152602001828054600181600116156101000203166002900480156103b75780601f1061038c576101008083540402835291602001916103b7565b820191906000526020600020905b81548152906001019060200180831161039a57829003601f168201915b505050505081565b600081600160003373ffffffffffffffffffffffffffffffffffffffff1673ffffffffffffffffffffffffffffffffffffffff16815260200190815260200160002060008573ffffffffffffffffffffffffffffffffffffffff1673ffffffffffffffffffffffffffffffffffffffff168152602001908152602001600020819055508273ffffffffffffffffffffffffffffffffffffffff163373ffffffffffffffffffffffffffffffffffffffff167f8c5be1e5ebec7d5bd14f71427d1e84f3dd0314c0f7b2291e5b200ac8c7c3b925846040518082815260200191505060405180910390a36001905092915050565b60025481565b6000816000808673ffffffffffffffffffffffffffffffffffffffff1673ffffffffffffffffffffffffffffffffffffffff168152602001908152602001600020541015610550576040517f08c379a000000000000000000000000000000000000000000000000000000000815260040180806020018281038252604f81526020018061193b604f913960600191505060405180910390fd5b81600160008673ffffffffffffffffffffffffffffffffffffffff1673ffffffffffffffffffffffffffffffffffffffff16815260200190815260200160002060003373ffffffffffffffffffffffffffffffffffffffff1673ffffffffffffffffffffffffffffffffffffffff168152602001908152602001600020541015610625576040517f08c379a00000000000000000000000000000000000000000000000000000000081526004018080602001828103825260568152602001806118e56056913960600191505060405180910390fd5b816000808573ffffffffffffffffffffffffffffffffffffffff1673ffffffffffffffffffffffffffffffffffffffff16815260200190815260200160002060008282540192505081905550816000808673ffffffffffffffffffffffffffffffffffffffff1673ffffffffffffffffffffffffffffffffffffffff168152602001908152602001600020600082825403925050819055508273ffffffffffffffffffffffffffffffffffffffff168473ffffffffffffffffffffffffffffffffffffffff167fddf252ad1be2c89b69c2b068fc378daa952ba7f163c4a11628f55a4df523b3ef846040518082815260200191505060405180910390a3600190509392505050565b60006020528060005260406000206000915090505481565b3073ffffffffffffffffffffffffffffffffffffffff166370a08231336040518263ffffffff1660e01b815260040161077e919061161d565b60206040518083038186803b15801561079657600080fd5b505afa1580156107aa573d6000803e3d6000fd5b505050506040513d601f19601f820116820180604052508101906107ce9190611506565b8111156107da57600080fd5b6107e43382610f96565b50600081336040516024016107fa929190611762565b6040516020818303038152906040527ef714ce000000000000000000000000000000000000000000000000000000007bffffffffffffffffffffffffffffffffffffffffffffffffffffffff19166020820180517bffffffffffffffffffffffffffffffffffffffffffffffffffffffff838183161783525050505090506108a8600660009054906101000a900473ffffffffffffffffffffffffffffffffffffffff16826287cda0610fab565b5050565b600460009054906101000a900473ffffffffffffffffffffffffffffffffffffffff1681565b6001602052816000526040600020602052806000526040600020600091509150505481565b60008060008373ffffffffffffffffffffffffffffffffffffffff1673ffffffffffffffffffffffffffffffffffffffff168152602001908152602001600020549050919050565b6000816000803373ffffffffffffffffffffffffffffffffffffffff1673ffffffffffffffffffffffffffffffffffffffff1681526020019081526020016000205410156109d8576040517f08c379a00000000000000000000000000000000000000000000000000000000081526004018080602001828103825260348152602001806119af6034913960400191505060405180910390fd5b816000803373ffffffffffffffffffffffffffffffffffffffff1673ffffffffffffffffffffffffffffffffffffffff16815260200190815260200160002060008282540392505081905550816000808573ffffffffffffffffffffffffffffffffffffffff1673ffffffffffffffffffffffffffffffffffffffff168152602001908152602001600020600082825401925050819055508273ffffffffffffffffffffffffffffffffffffffff163373ffffffffffffffffffffffffffffffffffffffff167fddf252ad1be2c89b69c2b068fc378daa952ba7f163c4a11628f55a4df523b3ef846040518082815260200191505060405180910390a36001905092915050565b600081600560009054906101000a900473ffffffffffffffffffffffffffffffffffffffff1673ffffffffffffffffffffffffffffffffffffffff166370a08231336040518263ffffffff1660e01b8152600401610b3d919061161d565b60206040518083038186803b158015610b5557600080fd5b505afa158015610b69573d6000803e3d6000fd5b505050506040513d601f19601f82011682018060405250810190610b8d9190611506565b1015610bce576040517f08c379a0000000000000000000000000000000000000000000000000000000008152600401610bc590611727565b60405180910390fd5b6000610bda33846110b3565b90507f90890809c654f11d6e72a28fa60149770a0d11ec6c92319d6ceb2bb0a4ea1a15338483604051610c0f9392919061166f565b60405180910390a1600560009054906101000a900473ffffffffffffffffffffffffffffffffffffffff1673ffffffffffffffffffffffffffffffffffffffff166323b872dd3330866040518463ffffffff1660e01b8152600401610c7693929190611638565b602060405180830381600087803b158015610c9057600080fd5b505af1158015610ca4573d6000803e3d6000fd5b505050506040513d601f19601f82011682018060405250810190610cc891906114b4565b50600560009054906101000a900473ffffffffffffffffffffffffffffffffffffffff1673ffffffffffffffffffffffffffffffffffffffff1663205c2878600660009054906101000a900473ffffffffffffffffffffffffffffffffffffffff16856040518363ffffffff1660e01b8152600401610d489291906116a6565b600060405180830381600087803b158015610d6257600080fd5b505af1158015610d76573d6000803e3d6000fd5b5050505060006040516024016040516020818303038152906040527fd0e30db0000000000000000000000000000000000000000000000000000000007bffffffffffffffffffffffffffffffffffffffffffffffffffffffff19166020820180517bffffffffffffffffffffffffffffffffffffffffffffffffffffffff83818316178352505050509050610e31600660009054906101000a900473ffffffffffffffffffffffffffffffffffffffff16826287cda0610fab565b3073ffffffffffffffffffffffffffffffffffffffff166370a08231336040518263ffffffff1660e01b8152600401610e6a919061161d565b60206040518083038186803b158015610e8257600080fd5b505afa158015610e96573d6000803e3d6000fd5b505050506040513d601f19601f82011682018060405250810190610eba9190611506565b92505050919050565b600560009054906101000a900473ffffffffffffffffffffffffffffffffffffffff1681565b6000600160008473ffffffffffffffffffffffffffffffffffffffff1673ffffffffffffffffffffffffffffffffffffffff16815260200190815260200160002060008373ffffffffffffffffffffffffffffffffffffffff1673ffffffffffffffffffffffffffffffffffffffff16815260200190815260200160002054905092915050565b600660009054906101000a900473ffffffffffffffffffffffffffffffffffffffff1681565b6000610fa283836110c8565b81905092915050565b610fb3611280565b73ffffffffffffffffffffffffffffffffffffffff16633dbb202b8484846040518463ffffffff1660e01b8152600401808473ffffffffffffffffffffffffffffffffffffffff168152602001806020018363ffffffff168152602001828103825284818151815260200191508051906020019080838360005b8381101561104857808201518184015260208101905061102d565b50505050905090810190601f1680156110755780820380516001836020036101000a031916815260200191505b50945050505050600060405180830381600087803b15801561109657600080fd5b505af11580156110aa573d6000803e3d6000fd5b50505050505050565b60006110bf83836112aa565b81905092915050565b806002541015611123576040517f08c379a00000000000000000000000000000000000000000000000000000000081526004018080602001828103825260228152602001806119e36022913960400191505060405180910390fd5b806000808473ffffffffffffffffffffffffffffffffffffffff1673ffffffffffffffffffffffffffffffffffffffff1681526020019081526020016000205410156111ba576040517f08c379a000000000000000000000000000000000000000000000000000000000815260040180806020018281038252602581526020018061198a6025913960400191505060405180910390fd5b80600260008282540392505081905550806000808473ffffffffffffffffffffffffffffffffffffffff1673ffffffffffffffffffffffffffffffffffffffff16815260200190815260200160002060008282540392505081905550600073ffffffffffffffffffffffffffffffffffffffff168273ffffffffffffffffffffffffffffffffffffffff167fddf252ad1be2c89b69c2b068fc378daa952ba7f163c4a11628f55a4df523b3ef836040518082815260200191505060405180910390a35050565b6000600460009054906101000a900473ffffffffffffffffffffffffffffffffffffffff16905090565b80600260008282540192505081905550806000808473ffffffffffffffffffffffffffffffffffffffff1673ffffffffffffffffffffffffffffffffffffffff168152602001908152602001600020600082825401925050819055508173ffffffffffffffffffffffffffffffffffffffff16600073ffffffffffffffffffffffffffffffffffffffff167fddf252ad1be2c89b69c2b068fc378daa952ba7f163c4a11628f55a4df523b3ef836040518082815260200191505060405180910390a35050565b60008135905061137f8161189f565b92915050565b600081519050611394816118b6565b92915050565b6000813590506113a9816118cd565b92915050565b6000815190506113be816118cd565b92915050565b6000602082840312156113d657600080fd5b60006113e484828501611370565b91505092915050565b6000806040838503121561140057600080fd5b600061140e85828601611370565b925050602061141f85828601611370565b9150509250929050565b60008060006060848603121561143e57600080fd5b600061144c86828701611370565b935050602061145d86828701611370565b925050604061146e8682870161139a565b9150509250925092565b6000806040838503121561148b57600080fd5b600061149985828601611370565b92505060206114aa8582860161139a565b9150509250929050565b6000602082840312156114c657600080fd5b60006114d484828501611385565b91505092915050565b6000602082840312156114ef57600080fd5b60006114fd8482850161139a565b91505092915050565b60006020828403121561151857600080fd5b6000611526848285016113af565b91505092915050565b61153881611801565b82525050565b611547816117b9565b82525050565b611556816117a7565b82525050565b611565816117cb565b82525050565b61157481611813565b82525050565b60006115858261178b565b61158f8185611796565b935061159f81856020860161185b565b6115a88161188e565b840191505092915050565b60006115c0600e83611796565b91507f6e6f7420656e6f756768204441490000000000000000000000000000000000006000830152602082019050919050565b6115fc816117f7565b82525050565b6000602082019050611617600083018461154d565b92915050565b6000602082019050611632600083018461152f565b92915050565b600060608201905061164d600083018661152f565b61165a602083018561154d565b61166760408301846115f3565b949350505050565b6000606082019050611684600083018661152f565b61169160208301856115f3565b61169e60408301846115f3565b949350505050565b60006040820190506116bb600083018561154d565b6116c860208301846115f3565b9392505050565b60006020820190506116e4600083018461155c565b92915050565b60006020820190506116ff600083018461156b565b92915050565b6000602082019050818103600083015261171f818461157a565b905092915050565b60006020820190508181036000830152611740816115b3565b9050919050565b600060208201905061175c60008301846115f3565b92915050565b600060408201905061177760008301856115f3565b611784602083018461153e565b9392505050565b600081519050919050565b600082825260208201905092915050565b60006117b2826117d7565b9050919050565b60006117c4826117d7565b9050919050565b60008115159050919050565b600073ffffffffffffffffffffffffffffffffffffffff82169050919050565b6000819050919050565b600061180c82611837565b9050919050565b600061181e82611825565b9050919050565b6000611830826117d7565b9050919050565b600061184282611849565b9050919050565b6000611854826117d7565b9050919050565b60005b8381101561187957808201518184015260208101905061185e565b83811115611888576000848401525b50505050565b6000601f19601f8301169050919050565b6118a8816117a7565b81146118b357600080fd5b50565b6118bf816117cb565b81146118ca57600080fd5b50565b6118d6816117f7565b81146118e157600080fd5b5056fe43616e2774207472616e736665722066726f6d207468652064657369726564206163636f756e74206265636175736520796f7520646f6e2774206861766520656e6f756768206f6620616e20616c6c6f77616e63652e43616e2774207472616e736665722066726f6d207468652064657369726564206163636f756e74206265636175736520697420646f65736e2774206861766520656e6f7567682062616c616e63652e4163636f756e7420646f6573206e6f74206861766520656e6f75676820746f206275726e2e596f7520646f6e2774206861766520656e6f7567682062616c616e636520746f206d616b652074686973207472616e736665722143616e2774206275726e206d6f7265207468616e20746f74616c20737570706c792ea2646970667358221220e606a89190dc53b9d2e2e87119014a21e23a17bf056f198ee357c087c55d690b64736f6c63430007060033506f70636f726e20444149204c325f5969656c644f7074696d697a6572506f6f6c",
  "linkReferences": {},
  "deployedLinkReferences": {}
}