{
  "_format": "hh-sol-artifact-1",
  "contractName": "L2_Pool",
  "sourceName": "contracts/L2_Pool.sol",
  "abi": [
    {
      "inputs": [
        {
          "internalType": "contract L2DepositedERC20",
          "name": "_oDAI",
          "type": "address"
        },
        {
          "internalType": "address",
          "name": "_L1_Pool",
          "type": "address"
        },
        {
          "internalType": "address",
          "name": "_L2_CrossDomainMessenger",
          "type": "address"
        },
        {
          "internalType": "uint256",
          "name": "_batchTransferPeriod",
          "type": "uint256"
        }
      ],
      "stateMutability": "nonpayable",
      "type": "constructor"
    },
    {
      "anonymous": false,
      "inputs": [
        {
          "indexed": true,
          "internalType": "address",
          "name": "_owner",
          "type": "address"
        },
        {
          "indexed": true,
          "internalType": "address",
          "name": "_spender",
          "type": "address"
        },
        {
          "indexed": false,
          "internalType": "uint256",
          "name": "_value",
          "type": "uint256"
        }
      ],
      "name": "Approval",
      "type": "event"
    },
    {
      "anonymous": false,
      "inputs": [
        {
          "indexed": false,
          "internalType": "address",
          "name": "l1_target",
          "type": "address"
        },
        {
          "indexed": false,
          "internalType": "uint256",
          "name": "withdrawalPeriod",
          "type": "uint256"
        }
      ],
      "name": "BatchWithdrawablePoolCreated",
      "type": "event"
    },
    {
      "anonymous": false,
      "inputs": [
        {
          "indexed": false,
          "internalType": "address",
          "name": "from",
          "type": "address"
        },
        {
          "indexed": false,
          "internalType": "uint256",
          "name": "deposit",
          "type": "uint256"
        },
        {
          "indexed": false,
          "internalType": "uint256",
          "name": "poolTokens",
          "type": "uint256"
        }
      ],
      "name": "Deposit",
      "type": "event"
    },
    {
      "anonymous": false,
      "inputs": [
        {
          "indexed": true,
          "internalType": "address",
          "name": "_from",
          "type": "address"
        },
        {
          "indexed": true,
          "internalType": "address",
          "name": "_to",
          "type": "address"
        },
        {
          "indexed": false,
          "internalType": "uint256",
          "name": "_value",
          "type": "uint256"
        }
      ],
      "name": "Transfer",
      "type": "event"
    },
    {
      "anonymous": false,
      "inputs": [
        {
          "indexed": false,
          "internalType": "address",
          "name": "who",
          "type": "address"
        },
        {
          "indexed": false,
          "internalType": "uint256",
          "name": "shares",
          "type": "uint256"
        },
        {
          "indexed": false,
          "internalType": "uint256",
          "name": "tokensToReceive",
          "type": "uint256"
        }
      ],
      "name": "WithdrawalClaimed",
      "type": "event"
    },
    {
      "anonymous": false,
      "inputs": [
        {
          "indexed": false,
          "internalType": "bytes32",
          "name": "batchId",
          "type": "bytes32"
        },
        {
          "indexed": false,
          "internalType": "uint256",
          "name": "tokenBalance",
          "type": "uint256"
        }
      ],
      "name": "WithdrawalRequestReceipt",
      "type": "event"
    },
    {
      "anonymous": false,
      "inputs": [
        {
          "indexed": false,
          "internalType": "address",
          "name": "who",
          "type": "address"
        },
        {
          "indexed": false,
          "internalType": "uint256",
          "name": "amount",
          "type": "uint256"
        }
      ],
      "name": "WithdrawalRequested",
      "type": "event"
    },
    {
      "inputs": [],
      "name": "L1_Pool",
      "outputs": [
        {
          "internalType": "address",
          "name": "",
          "type": "address"
        }
      ],
      "stateMutability": "view",
      "type": "function"
    },
    {
      "inputs": [],
      "name": "L1_Target",
      "outputs": [
        {
          "internalType": "address",
          "name": "",
          "type": "address"
        }
      ],
      "stateMutability": "view",
      "type": "function"
    },
    {
      "inputs": [
        {
          "internalType": "address",
          "name": "_address",
          "type": "address"
        },
        {
          "internalType": "bytes32",
          "name": "batchId",
          "type": "bytes32"
        }
      ],
      "name": "addressHasClaimableWithdrawal",
      "outputs": [
        {
          "internalType": "bool",
          "name": "",
          "type": "bool"
        }
      ],
      "stateMutability": "view",
      "type": "function"
    },
    {
      "inputs": [
        {
          "internalType": "address",
          "name": "_owner",
          "type": "address"
        },
        {
          "internalType": "address",
          "name": "_spender",
          "type": "address"
        }
      ],
      "name": "allowance",
      "outputs": [
        {
          "internalType": "uint256",
          "name": "",
          "type": "uint256"
        }
      ],
      "stateMutability": "view",
      "type": "function"
    },
    {
      "inputs": [
        {
          "internalType": "address",
          "name": "",
          "type": "address"
        },
        {
          "internalType": "address",
          "name": "",
          "type": "address"
        }
      ],
      "name": "allowances",
      "outputs": [
        {
          "internalType": "uint256",
          "name": "",
          "type": "uint256"
        }
      ],
      "stateMutability": "view",
      "type": "function"
    },
    {
      "inputs": [
        {
          "internalType": "address",
          "name": "_spender",
          "type": "address"
        },
        {
          "internalType": "uint256",
          "name": "_amount",
          "type": "uint256"
        }
      ],
      "name": "approve",
      "outputs": [
        {
          "internalType": "bool",
          "name": "",
          "type": "bool"
        }
      ],
      "stateMutability": "nonpayable",
      "type": "function"
    },
    {
      "inputs": [
        {
          "internalType": "address",
          "name": "_owner",
          "type": "address"
        }
      ],
      "name": "balanceOf",
      "outputs": [
        {
          "internalType": "uint256",
          "name": "",
          "type": "uint256"
        }
      ],
      "stateMutability": "view",
      "type": "function"
    },
    {
      "inputs": [
        {
          "internalType": "address",
          "name": "",
          "type": "address"
        }
      ],
      "name": "balances",
      "outputs": [
        {
          "internalType": "uint256",
          "name": "",
          "type": "uint256"
        }
      ],
      "stateMutability": "view",
      "type": "function"
    },
    {
      "inputs": [],
      "name": "batchDepositAllowed",
      "outputs": [
        {
          "internalType": "bool",
          "name": "",
          "type": "bool"
        }
      ],
      "stateMutability": "nonpayable",
      "type": "function"
    },
    {
      "inputs": [],
      "name": "batchTransferPeriod",
      "outputs": [
        {
          "internalType": "uint256",
          "name": "",
          "type": "uint256"
        }
      ],
      "stateMutability": "view",
      "type": "function"
    },
    {
      "inputs": [],
      "name": "batchWithdrawalAllowed",
      "outputs": [
        {
          "internalType": "bool",
          "name": "",
          "type": "bool"
        }
      ],
      "stateMutability": "view",
      "type": "function"
    },
    {
      "inputs": [
        {
          "internalType": "bytes32",
          "name": "batchId",
          "type": "bytes32"
        },
        {
          "internalType": "uint256",
          "name": "tokenBalance",
          "type": "uint256"
        }
      ],
      "name": "batchWithdrawalRequestReceived",
      "outputs": [],
      "stateMutability": "nonpayable",
      "type": "function"
    },
    {
      "inputs": [
        {
          "internalType": "bytes32",
          "name": "batchId",
          "type": "bytes32"
        }
      ],
      "name": "claimWithdrawal",
      "outputs": [
        {
          "internalType": "uint256",
          "name": "",
          "type": "uint256"
        }
      ],
      "stateMutability": "nonpayable",
      "type": "function"
    },
    {
      "inputs": [],
      "name": "currentWithdrawalBatchId",
      "outputs": [
        {
          "internalType": "bytes32",
          "name": "",
          "type": "bytes32"
        }
      ],
      "stateMutability": "view",
      "type": "function"
    },
    {
      "inputs": [
        {
          "internalType": "uint256",
          "name": "amount",
          "type": "uint256"
        }
      ],
      "name": "deposit",
      "outputs": [
        {
          "internalType": "uint256",
          "name": "",
          "type": "uint256"
        }
      ],
      "stateMutability": "nonpayable",
      "type": "function"
    },
    {
      "inputs": [],
      "name": "executeBatchDeposit",
      "outputs": [
        {
          "internalType": "uint256",
          "name": "",
          "type": "uint256"
        }
      ],
      "stateMutability": "nonpayable",
      "type": "function"
    },
    {
      "inputs": [],
      "name": "executeBatchWithdrawal",
      "outputs": [
        {
          "internalType": "uint256",
          "name": "",
          "type": "uint256"
        }
      ],
      "stateMutability": "nonpayable",
      "type": "function"
    },
    {
      "inputs": [
        {
          "internalType": "address",
          "name": "_address",
          "type": "address"
        },
        {
          "internalType": "bytes32",
          "name": "batchId",
          "type": "bytes32"
        }
      ],
      "name": "getWithdrawableBalance",
      "outputs": [
        {
          "internalType": "uint256",
          "name": "",
          "type": "uint256"
        }
      ],
      "stateMutability": "view",
      "type": "function"
    },
    {
      "inputs": [
        {
          "internalType": "address",
          "name": "_address",
          "type": "address"
        }
      ],
      "name": "getWithdrawalsForAddress",
      "outputs": [
        {
          "internalType": "bytes32[]",
          "name": "",
          "type": "bytes32[]"
        }
      ],
      "stateMutability": "view",
      "type": "function"
    },
    {
      "inputs": [],
      "name": "lastDepositMadeAt",
      "outputs": [
        {
          "internalType": "uint256",
          "name": "",
          "type": "uint256"
        }
      ],
      "stateMutability": "view",
      "type": "function"
    },
    {
      "inputs": [],
      "name": "lastWithdrawalMadeAt",
      "outputs": [
        {
          "internalType": "uint256",
          "name": "",
          "type": "uint256"
        }
      ],
      "stateMutability": "view",
      "type": "function"
    },
    {
      "inputs": [],
      "name": "messenger",
      "outputs": [
        {
          "internalType": "address",
          "name": "",
          "type": "address"
        }
      ],
      "stateMutability": "view",
      "type": "function"
    },
    {
      "inputs": [],
      "name": "name",
      "outputs": [
        {
          "internalType": "string",
          "name": "",
          "type": "string"
        }
      ],
      "stateMutability": "view",
      "type": "function"
    },
    {
      "inputs": [],
      "name": "oDAI",
      "outputs": [
        {
          "internalType": "contract L2DepositedERC20",
          "name": "",
          "type": "address"
        }
      ],
      "stateMutability": "view",
      "type": "function"
    },
    {
      "inputs": [
        {
          "internalType": "uint256",
          "name": "amount",
          "type": "uint256"
        }
      ],
      "name": "requestWithdrawal",
      "outputs": [
        {
          "internalType": "uint256",
          "name": "",
          "type": "uint256"
        }
      ],
      "stateMutability": "nonpayable",
      "type": "function"
    },
    {
      "inputs": [],
      "name": "toDeposit",
      "outputs": [
        {
          "internalType": "uint256",
          "name": "",
          "type": "uint256"
        }
      ],
      "stateMutability": "view",
      "type": "function"
    },
    {
      "inputs": [],
      "name": "totalSupply",
      "outputs": [
        {
          "internalType": "uint256",
          "name": "",
          "type": "uint256"
        }
      ],
      "stateMutability": "view",
      "type": "function"
    },
    {
      "inputs": [
        {
          "internalType": "address",
          "name": "_to",
          "type": "address"
        },
        {
          "internalType": "uint256",
          "name": "_amount",
          "type": "uint256"
        }
      ],
      "name": "transfer",
      "outputs": [
        {
          "internalType": "bool",
          "name": "",
          "type": "bool"
        }
      ],
      "stateMutability": "nonpayable",
      "type": "function"
    },
    {
      "inputs": [
        {
          "internalType": "address",
          "name": "_from",
          "type": "address"
        },
        {
          "internalType": "address",
          "name": "_to",
          "type": "address"
        },
        {
          "internalType": "uint256",
          "name": "_amount",
          "type": "uint256"
        }
      ],
      "name": "transferFrom",
      "outputs": [
        {
          "internalType": "bool",
          "name": "",
          "type": "bool"
        }
      ],
      "stateMutability": "nonpayable",
      "type": "function"
    },
    {
      "inputs": [
        {
          "internalType": "address",
          "name": "",
          "type": "address"
        },
        {
          "internalType": "uint256",
          "name": "",
          "type": "uint256"
        }
      ],
      "name": "withdrawalBatchIds",
      "outputs": [
        {
          "internalType": "bytes32",
          "name": "",
          "type": "bytes32"
        }
      ],
      "stateMutability": "view",
      "type": "function"
    },
    {
      "inputs": [],
      "name": "withdrawalPeriod",
      "outputs": [
        {
          "internalType": "uint256",
          "name": "",
          "type": "uint256"
        }
      ],
      "stateMutability": "view",
      "type": "function"
    },
    {
      "inputs": [
        {
          "internalType": "bytes32",
          "name": "",
          "type": "bytes32"
        }
      ],
      "name": "withdrawalVaults",
      "outputs": [
        {
          "internalType": "enum BatchWithdrawablePool.TransferStatus",
          "name": "transferStatus",
          "type": "uint8"
        },
        {
          "internalType": "uint256",
          "name": "unclaimedShares",
          "type": "uint256"
        },
        {
          "internalType": "uint256",
          "name": "tokenBalance",
          "type": "uint256"
        }
      ],
      "stateMutability": "view",
      "type": "function"
    }
  ],
  "bytecode": "0x60806040523480156200001c576000806200001962000364565b50505b50604051620046da380380620046da833981810160405281019062000042919062000699565b8281836000604051806060016040528060218152602001620046b960219139816000805a62000070620003d4565b73ffffffffffffffffffffffffffffffffffffffff1673ffffffffffffffffffffffffffffffffffffffff1681526020019081526020016000208190620000b662000433565b5050508160028190620000c862000433565b5050508060039080519060200190620000e39291906200049a565b50505080600460006101000a81620000fa62000566565b8173ffffffffffffffffffffffffffffffffffffffff021916908373ffffffffffffffffffffffffffffffffffffffff160217906200013862000433565b5050505081600560006101000a816200015062000566565b8173ffffffffffffffffffffffffffffffffffffffff021916908373ffffffffffffffffffffffffffffffffffffffff160217906200018e62000433565b5050508060078190620001a062000433565b5050505a620001ae620005cb565b5a620001b9620003d4565b604051602001620001cc92919062000768565b6040516020818303038152906040528051906020012060068190620001f062000433565b5050505a620001fe620005cb565b600a81906200020c62000433565b5050507f78a38270ca62cd5e2dd209b1f51419221a2d5281ccb05394ab75346e0b0d00ad60056000906200023f62000566565b906101000a900473ffffffffffffffffffffffffffffffffffffffff1660076200026862000566565b6040516200027892919062000798565b60405180910390a1505080600e81906200029162000433565b50505083600b60006101000a81620002a862000566565b8173ffffffffffffffffffffffffffffffffffffffff021916908373ffffffffffffffffffffffffffffffffffffffff16021790620002e662000433565b50505082600c60006101000a81620002fd62000566565b8173ffffffffffffffffffffffffffffffffffffffff021916908373ffffffffffffffffffffffffffffffffffffffff160217906200033b62000433565b5050505a62000349620005cb565b600f81906200035762000433565b50505050505050620008d9565b632a2a7adb598160e01b8152600481016020815285602082015260005b86811015620003a157808601518160408401015260208101905062000381565b506020828760640184336000905af158600e01573d6000803e3d6000fd5b3d6001141558600a015760016000f35b505050565b6373509064598160e01b8152602081600483336000905af158600e01573d6000803e3d6000fd5b3d6001141558600a015760016000f35b8051935060005b60408110156200042e5760008183015260208101905062000412565b505050565b6322bd64c0598160e01b8152836004820152846024820152600081604483336000905af158600e01573d6000803e3d6000fd5b3d6001141558600a015760016000f35b60005b6040811015620004955760008183015260208101905062000479565b505050565b8280620004a662000566565b600181600116156101000203166002900490600052602060002090601f016020900481019282620004e657600085620004de62000433565b505062000553565b82601f106200050c57805160ff191683800117856200050462000433565b505062000553565b828001600101856200051d62000433565b5050821562000553579182015b8281111562000552578251826200054062000433565b5050916020019190600101906200052a565b5b5090506200056291906200062a565b5090565b6303daa959598160e01b8152836004820152602081602483336000905af158600e01573d6000803e3d6000fd5b3d6001141558600a015760016000f35b8051935060005b6040811015620005c657600081830152602081019050620005aa565b505050565b63bdbf8c36598160e01b8152602081600483336000905af158600e01573d6000803e3d6000fd5b3d6001141558600a015760016000f35b8051935060005b6040811015620006255760008183015260208101905062000609565b505050565b5b8082111562000650576000816000906200064462000433565b5050506001016200062b565b5090565b60008151905062000665816200086a565b92915050565b6000815190506200067c816200088f565b92915050565b6000815190506200069381620008b4565b92915050565b60008060008060808587031215620006bb57600080620006b862000364565b50505b6000620006cb878288016200066b565b9450506020620006de8782880162000654565b9350506040620006f18782880162000654565b9250506060620007048782880162000682565b91505092959194509250565b620007256200071f82620007d9565b6200082b565b82525050565b6200073681620007c5565b82525050565b620007478162000821565b82525050565b620007626200075c8262000821565b62000853565b82525050565b60006200077682856200074d565b60208201915062000788828462000710565b6014820191508190509392505050565b6000604082019050620007af60008301856200072b565b620007be60208301846200073c565b9392505050565b6000620007d28262000801565b9050919050565b6000620007e68262000801565b9050919050565b6000620007fa82620007c5565b9050919050565b600073ffffffffffffffffffffffffffffffffffffffff82169050919050565b6000819050919050565b600062000838826200083f565b9050919050565b60006200084c826200085d565b9050919050565b6000819050919050565b60008160601b9050919050565b6200087581620007c5565b81146200088c576000806200088962000364565b50505b50565b6200089a81620007ed565b8114620008b157600080620008ae62000364565b50505b50565b620008bf8162000821565b8114620008d657600080620008d362000364565b50505b50565b613dd080620008e96000396000f3fe608060405234801561001957600080610016612c76565b50505b50600436106101f95760003560e01c806370a0823111610118578063a9059cbb116100ab578063c9728c281161007a578063c9728c281461064b578063dd62ed3e14610669578063ed5cec3a14610699578063f4f303df146106b7576101f9565b8063a9059cbb146105af578063aa3a76c8146105df578063b6b55f25146105fd578063bca7093d1461062d576101f9565b80638e88eccc116100e75780638e88eccc146104ff5780639624aa331461052f5780639df4cd211461054d5780639ee679e81461057f576101f9565b806370a082311461045157806379c1927d1461048157806380a7e70c1461049f5780638705728f146104cf576101f9565b806327e235e311610190578063466e22af1161015f578063466e22af146103a35780634e02d04c146103c157806355b6ed5c146103f15780635bbc210414610421576101f9565b806327e235e3146103195780632e96fde0146103495780633cb747bf1461036757806342e13ed814610385576101f9565b8063180282b3116101cc578063180282b31461028f57806318160ddd146102ad57806323b872dd146102cb57806325e1c509146102fb576101f9565b80630264b3591461020757806306fdde0314610223578063095ea7b3146102415780630be72f1814610271575b600080610204612c76565b50505b610221600480360381019061021c91906132ef565b6106d5565b005b61022b610987565b60405161023891906138c8565b60405180910390f35b61025b60048036038101906102569190613246565b610a41565b6040516102689190613817565b60405180910390f35b610279610b4c565b60405161028691906136ff565b60405180910390f35b610297610b79565b6040516102a491906139ca565b60405180910390f35b6102b5610e04565b6040516102c291906139ca565b60405180910390f35b6102e560048036038101906102e091906131a9565b610e11565b6040516102f29190613817565b60405180910390f35b6103036110cf565b60405161031091906139ca565b60405180910390f35b610333600480360381019061032e9190613132565b6110dc565b60405161034091906139ca565b60405180910390f35b6103516110fb565b60405161035e91906139ca565b60405180910390f35b61036f611108565b60405161037c91906136ff565b60405180910390f35b61038d611135565b60405161039a91906139ca565b60405180910390f35b6103ab611216565b6040516103b891906139ca565b60405180910390f35b6103db60048036038101906103d69190613201565b611223565b6040516103e89190613817565b60405180910390f35b61040b60048036038101906104069190613164565b6112d5565b60405161041891906139ca565b60405180910390f35b61043b60048036038101906104369190613201565b611301565b60405161044891906139ca565b60405180910390f35b61046b60048036038101906104669190613132565b611366565b60405161047891906139ca565b60405180910390f35b6104896113b5565b6040516104969190613817565b60405180910390f35b6104b960048036038101906104b49190613132565b6113ec565b6040516104c691906137f5565b60405180910390f35b6104e960048036038101906104e49190613246565b611498565b6040516104f69190613832565b60405180910390f35b610519600480360381019061051491906132bd565b6114e0565b60405161052691906139ca565b60405180910390f35b6105376115dc565b6040516105449190613832565b60405180910390f35b610567600480360381019061056291906132bd565b6115e9565b60405161057693929190613891565b60405180910390f35b61059960048036038101906105949190613334565b611635565b6040516105a691906139ca565b60405180910390f35b6105c960048036038101906105c49190613246565b6117ce565b6040516105d69190613817565b60405180910390f35b6105e76119b6565b6040516105f491906139ca565b60405180910390f35b61061760048036038101906106129190613334565b6119c3565b60405161062491906139ca565b60405180910390f35b610635611de5565b60405161064291906139ca565b60405180910390f35b610653611df2565b6040516106609190613876565b60405180910390f35b610683600480360381019061067e9190613164565b611e1f565b60405161069091906139ca565b60405180910390f35b6106a1611ead565b6040516106ae91906136ff565b60405180910390f35b6106bf611eda565b6040516106cc9190613817565b60405180910390f35b60056000906106e2612ce4565b906101000a900473ffffffffffffffffffffffffffffffffffffffff16610707611f11565b73ffffffffffffffffffffffffffffffffffffffff165a610726612d47565b73ffffffffffffffffffffffffffffffffffffffff161461079b576040517f08c379a000000000000000000000000000000000000000000000000000000000815260040180806020018281038252602e815260200180613c87602e913960400191505060405180910390610798612c76565b50505b8073ffffffffffffffffffffffffffffffffffffffff166107ba611f11565b73ffffffffffffffffffffffffffffffffffffffff16636e296e456040518163ffffffff1660e01b815260040160206040518083038186806107fa612da4565b15801561080f5760008061080c612c76565b50505b505a610819612e07565b5050505050158015610838573d6000803e3d6000610835612c76565b50505b505050506040513d602081101561085757600080610854612c76565b50505b810190808051906020019092919050505073ffffffffffffffffffffffffffffffffffffffff16146108dd576040517f08c379a0000000000000000000000000000000000000000000000000000000008152600401808060200182810382526030815260200180613d2560309139604001915050604051809103906108da612c76565b50505b60026009600085815260200190815260200160002060000160006101000a81610904612ce4565b8160ff0219169083600281111561091757fe5b021790610922612f07565b50505081600960008581526020019081526020016000206002018190610946612f07565b5050507f5eb00fbfbc3b4ad3352d21047900bc8793564fd52e37b74cf2e43d15d9350497838360405161097a92919061384d565b60405180910390a1505050565b600380610992612ce4565b600181600116156101000203166002900480601f016020809104026020016040519081016040528092919081815260200182806109cd612ce4565b60018160011615610100020316600290048015610a395780601f10610a075761010080836109f9612ce4565b040283529160200191610a39565b820191906000526020600020905b81610a1e612ce4565b81529060010190602001808311610a1557829003601f168201915b505050505081565b600081600160005a610a51612d47565b73ffffffffffffffffffffffffffffffffffffffff1673ffffffffffffffffffffffffffffffffffffffff16815260200190815260200160002060008573ffffffffffffffffffffffffffffffffffffffff1673ffffffffffffffffffffffffffffffffffffffff1681526020019081526020016000208190610ad2612f07565b5050508273ffffffffffffffffffffffffffffffffffffffff165a610af5612d47565b73ffffffffffffffffffffffffffffffffffffffff167f8c5be1e5ebec7d5bd14f71427d1e84f3dd0314c0f7b2291e5b200ac8c7c3b925846040518082815260200191505060405180910390a36001905092915050565b6005600090610b59612ce4565b906101000a900473ffffffffffffffffffffffffffffffffffffffff1681565b600080600d610b86612ce4565b11610bcf576040517f08c379a0000000000000000000000000000000000000000000000000000000008152600401610bbd9061392a565b60405180910390610bcc612c76565b50505b610bd7611eda565b610c1f576040517f08c379a0000000000000000000000000000000000000000000000000000000008152600401610c0d906138ea565b60405180910390610c1c612c76565b50505b600b600090610c2c612ce4565b906101000a900473ffffffffffffffffffffffffffffffffffffffff1673ffffffffffffffffffffffffffffffffffffffff1663205c2878600c600090610c71612ce4565b906101000a900473ffffffffffffffffffffffffffffffffffffffff16600d610c98612ce4565b6040518363ffffffff1660e01b8152600401610cb59291906137cc565b60006040518083038160008780610cca612da4565b158015610cdf57600080610cdc612c76565b50505b505a610ce9612f6c565b505050505050158015610d09573d6000803e3d6000610d06612c76565b50505b505050506000600d8190610d1b612f07565b50505060006040516024016040516020818303038152906040527fd0e30db0000000000000000000000000000000000000000000000000000000007bffffffffffffffffffffffffffffffffffffffffffffffffffffffff19166020820180517bffffffffffffffffffffffffffffffffffffffffffffffffffffffff83818316178352505050509050610ddc600c600090610db5612ce4565b906101000a900473ffffffffffffffffffffffffffffffffffffffff16826287cda0611f42565b5a610de561306c565b600f8190610df1612f07565b505050600d610dfe612ce4565b91505090565b6002610e0e612ce4565b81565b6000816000808673ffffffffffffffffffffffffffffffffffffffff1673ffffffffffffffffffffffffffffffffffffffff168152602001908152602001600020610e5a612ce4565b1015610eba576040517f08c379a000000000000000000000000000000000000000000000000000000000815260040180806020018281038252604f815260200180613cb5604f913960600191505060405180910390610eb7612c76565b50505b81600160008673ffffffffffffffffffffffffffffffffffffffff1673ffffffffffffffffffffffffffffffffffffffff16815260200190815260200160002060005a610f05612d47565b73ffffffffffffffffffffffffffffffffffffffff1673ffffffffffffffffffffffffffffffffffffffff168152602001908152602001600020610f47612ce4565b1015610fa7576040517f08c379a0000000000000000000000000000000000000000000000000000000008152600401808060200182810382526056815260200180613c316056913960600191505060405180910390610fa4612c76565b50505b816000808573ffffffffffffffffffffffffffffffffffffffff1673ffffffffffffffffffffffffffffffffffffffff16815260200190815260200160002060008282610ff2612ce4565b019250508190611000612f07565b505050816000808673ffffffffffffffffffffffffffffffffffffffff1673ffffffffffffffffffffffffffffffffffffffff1681526020019081526020016000206000828261104e612ce4565b03925050819061105c612f07565b5050508273ffffffffffffffffffffffffffffffffffffffff168473ffffffffffffffffffffffffffffffffffffffff167fddf252ad1be2c89b69c2b068fc378daa952ba7f163c4a11628f55a4df523b3ef846040518082815260200191505060405180910390a3600190509392505050565b600e6110d9612ce4565b81565b60006020528060005260406000206000915090506110f8612ce4565b81565b600a611105612ce4565b81565b6004600090611115612ce4565b906101000a900473ffffffffffffffffffffffffffffffffffffffff1681565b600080600960006006611146612ce4565b815260200190815260200160002060010161115f612ce4565b9050600081116111ad576040517f08c379a000000000000000000000000000000000000000000000000000000000815260040161119b9061396a565b604051809103906111aa612c76565b50505b6111b56113b5565b6111fd576040517f08c379a00000000000000000000000000000000000000000000000000000000081526004016111eb9061394a565b604051809103906111fa612c76565b50505b61120681612070565b61120e6121a5565b508091505090565b600d611220612ce4565b81565b6000806009600084815260200190815260200160002060030160008573ffffffffffffffffffffffffffffffffffffffff1673ffffffffffffffffffffffffffffffffffffffff168152602001908152602001600020611281612ce4565b1180156112cd575060028081111561129557fe5b600960008481526020019081526020016000206000016000906112b6612ce4565b906101000a900460ff1660028111156112cb57fe5b145b905092915050565b6001602052816000526040600020602052806000526040600020600091509150506112fe612ce4565b81565b60006009600083815260200190815260200160002060030160008473ffffffffffffffffffffffffffffffffffffffff1673ffffffffffffffffffffffffffffffffffffffff16815260200190815260200160002061135e612ce4565b905092915050565b60008060008373ffffffffffffffffffffffffffffffffffffffff1673ffffffffffffffffffffffffffffffffffffffff1681526020019081526020016000206113ae612ce4565b9050919050565b600060076113c1612ce4565b6113e5600a6113ce612ce4565b5a6113d761306c565b61221d90919063ffffffff16565b1015905090565b6060600860008373ffffffffffffffffffffffffffffffffffffffff1673ffffffffffffffffffffffffffffffffffffffff16815260200190815260200160002080611436612ce4565b8060200260200160405190810160405280929190818152602001828061145a612ce4565b801561148c57602002820191906000526020600020905b8161147a612ce4565b81526020019060010190808311611471575b50505050509050919050565b600860205281600052604060002081816114b0612ce4565b81106114c4576000806114c1612c76565b50505b90600052602060002001600091509150506114dd612ce4565b81565b6000806114ec836122a9565b9050600b6000906114fb612ce4565b906101000a900473ffffffffffffffffffffffffffffffffffffffff1673ffffffffffffffffffffffffffffffffffffffff1663a9059cbb5a61153c612d47565b836040518363ffffffff1660e01b815260040161155a92919061376c565b6020604051808303816000878061156f612da4565b15801561158457600080611581612c76565b50505b505a61158e612f6c565b5050505050501580156115ae573d6000803e3d60006115ab612c76565b50505b505050506040513d601f19601f820116820180604052508101906115d2919061328b565b5080915050919050565b60066115e6612ce4565b81565b60096020528060005260406000206000915090508060000160009061160c612ce4565b906101000a900460ff169080600101611623612ce4565b9080600201611630612ce4565b905083565b60005a63996d79a5598160e01b8152602081600483336000905af158600e01573d6000803e3d6000fd5b3d6001141558600a015760016000f35b8051925060005b604081101561169057600081830152602081019050611676565b50505073ffffffffffffffffffffffffffffffffffffffff166370a082315a6116b7612d47565b6040518263ffffffff1660e01b81526004016116d3919061371a565b60206040518083038186806116e6612da4565b1580156116fb576000806116f8612c76565b50505b505a611705612e07565b5050505050158015611724573d6000803e3d6000611721612c76565b50505b505050506040513d601f19601f820116820180604052508101906117489190613366565b821115611793576040517f08c379a0000000000000000000000000000000000000000000000000000000008152600401611781906139aa565b60405180910390611790612c76565b50505b6117a55a61179f612d47565b8361241c565b506117af82612431565b6117b76113b5565b156117c6576117c4611135565b505b819050919050565b6000816000805a6117dd612d47565b73ffffffffffffffffffffffffffffffffffffffff1673ffffffffffffffffffffffffffffffffffffffff16815260200190815260200160002061181f612ce4565b101561187f576040517f08c379a0000000000000000000000000000000000000000000000000000000008152600401808060200182810382526034815260200180613d7a603491396040019150506040518091039061187c612c76565b50505b816000805a61188c612d47565b73ffffffffffffffffffffffffffffffffffffffff1673ffffffffffffffffffffffffffffffffffffffff168152602001908152602001600020600082826118d2612ce4565b0392505081906118e0612f07565b505050816000808573ffffffffffffffffffffffffffffffffffffffff1673ffffffffffffffffffffffffffffffffffffffff1681526020019081526020016000206000828261192e612ce4565b01925050819061193c612f07565b5050508273ffffffffffffffffffffffffffffffffffffffff165a61195f612d47565b73ffffffffffffffffffffffffffffffffffffffff167fddf252ad1be2c89b69c2b068fc378daa952ba7f163c4a11628f55a4df523b3ef846040518082815260200191505060405180910390a36001905092915050565b600f6119c0612ce4565b81565b600081600b6000906119d3612ce4565b906101000a900473ffffffffffffffffffffffffffffffffffffffff1673ffffffffffffffffffffffffffffffffffffffff166370a082315a611a14612d47565b6040518263ffffffff1660e01b8152600401611a30919061371a565b6020604051808303818680611a43612da4565b158015611a5857600080611a55612c76565b50505b505a611a62612e07565b5050505050158015611a81573d6000803e3d6000611a7e612c76565b50505b505050506040513d601f19601f82011682018060405250810190611aa59190613366565b1015611aef576040517f08c379a0000000000000000000000000000000000000000000000000000000008152600401611add9061390a565b60405180910390611aec612c76565b50505b6000611b035a611afd612d47565b8461260e565b90507f90890809c654f11d6e72a28fa60149770a0d11ec6c92319d6ceb2bb0a4ea1a155a611b2f612d47565b8483604051611b4093929190613795565b60405180910390a1600b600090611b55612ce4565b906101000a900473ffffffffffffffffffffffffffffffffffffffff1673ffffffffffffffffffffffffffffffffffffffff166323b872dd5a611b96612d47565b5a63996d79a5598160e01b8152602081600483336000905af158600e01573d6000803e3d6000fd5b3d6001141558600a015760016000f35b8051925060005b6040811015611bef57600081830152602081019050611bd5565b505050866040518463ffffffff1660e01b8152600401611c1193929190613735565b60206040518083038160008780611c26612da4565b158015611c3b57600080611c38612c76565b50505b505a611c45612f6c565b505050505050158015611c65573d6000803e3d6000611c62612c76565b50505b505050506040513d601f19601f82011682018060405250810190611c89919061328b565b50611ca683600d611c98612ce4565b61262390919063ffffffff16565b600d8190611cb2612f07565b505050611cbd611eda565b15611ccc57611cca610b79565b505b5a63996d79a5598160e01b8152602081600483336000905af158600e01573d6000803e3d6000fd5b3d6001141558600a015760016000f35b8051925060005b6040811015611d2557600081830152602081019050611d0b565b50505073ffffffffffffffffffffffffffffffffffffffff166370a082315a611d4c612d47565b6040518263ffffffff1660e01b8152600401611d68919061371a565b6020604051808303818680611d7b612da4565b158015611d9057600080611d8d612c76565b50505b505a611d9a612e07565b5050505050158015611db9573d6000803e3d6000611db6612c76565b50505b505050506040513d601f19601f82011682018060405250810190611ddd9190613366565b915050919050565b6007611def612ce4565b81565b600b600090611dff612ce4565b906101000a900473ffffffffffffffffffffffffffffffffffffffff1681565b6000600160008473ffffffffffffffffffffffffffffffffffffffff1673ffffffffffffffffffffffffffffffffffffffff16815260200190815260200160002060008373ffffffffffffffffffffffffffffffffffffffff1673ffffffffffffffffffffffffffffffffffffffff168152602001908152602001600020611ea5612ce4565b905092915050565b600c600090611eba612ce4565b906101000a900473ffffffffffffffffffffffffffffffffffffffff1681565b6000600e611ee6612ce4565b611f0a600f611ef3612ce4565b5a611efc61306c565b61221d90919063ffffffff16565b1015905090565b60006004600090611f20612ce4565b906101000a900473ffffffffffffffffffffffffffffffffffffffff16905090565b611f4a611f11565b73ffffffffffffffffffffffffffffffffffffffff16633dbb202b8484846040518463ffffffff1660e01b8152600401808473ffffffffffffffffffffffffffffffffffffffff168152602001806020018363ffffffff168152602001828103825284818151815260200191508051906020019080838360005b83811015611fdf578082015181840152602081019050611fc4565b50505050905090810190601f16801561200c5780820380516001836020036101000a031916815260200191505b5094505050505060006040518083038160008780612028612da4565b15801561203d5760008061203a612c76565b50505b505a612047612f6c565b505050505050158015612067573d6000803e3d6000612064612c76565b50505b50505050505050565b6000815a63996d79a5598160e01b8152602081600483336000905af158600e01573d6000803e3d6000fd5b3d6001141558600a015760016000f35b8051925060005b60408110156120cc576000818301526020810190506120b2565b50505060066120d9612ce4565b6040516024016120eb939291906139e5565b6040516020818303038152906040527f9e864c70000000000000000000000000000000000000000000000000000000007bffffffffffffffffffffffffffffffffffffffffffffffffffffffff19166020820180517bffffffffffffffffffffffffffffffffffffffffffffffffffffffff838183161783525050505090506121a1600560009061217a612ce4565b906101000a900473ffffffffffffffffffffffffffffffffffffffff16826287cda0611f42565b5050565b60005a6121b061306c565b600a81906121bc612f07565b50505060016009600060066121cf612ce4565b815260200190815260200160002060000160006101000a816121ef612ce4565b8160ff0219169083600281111561220257fe5b02179061220d612f07565b5050506122186126b4565b905090565b60008282111561229e576040517f08c379a000000000000000000000000000000000000000000000000000000000815260040180806020018281038252601e8152602001807f536166654d6174683a207375627472616374696f6e206f766572666c6f7700008152506020019150506040518091039061229b612c76565b50505b818303905092915050565b60006002808111156122b757fe5b600960008481526020019081526020016000206000016000906122d8612ce4565b906101000a900460ff1660028111156122ed57fe5b14612336576040517f08c379a00000000000000000000000000000000000000000000000000000000081526004016123249061398a565b60405180910390612333612c76565b50505b6123485a612342612d47565b83611223565b61235a57600080612357612c76565b50505b60006009600084815260200190815260200160002060030160005a61237d612d47565b73ffffffffffffffffffffffffffffffffffffffff1673ffffffffffffffffffffffffffffffffffffffff1681526020019081526020016000206123bf612ce4565b905060006123cd848361275f565b90507f2d43eb174787155132b52ddb6b346e2dca99302eac3df4466dbeff953d3c84d15a6123f9612d47565b838360405161240a93929190613795565b60405180910390a18092505050919050565b60006124288383612877565b81905092915050565b6000600960006006612441612ce4565b8152602001908152602001600020905061246f8282600101612461612ce4565b61262390919063ffffffff16565b81600101819061247d612f07565b5050506124e3828260030160005a612493612d47565b73ffffffffffffffffffffffffffffffffffffffff1673ffffffffffffffffffffffffffffffffffffffff1681526020019081526020016000206124d5612ce4565b61262390919063ffffffff16565b8160030160005a6124f2612d47565b73ffffffffffffffffffffffffffffffffffffffff1673ffffffffffffffffffffffffffffffffffffffff1681526020019081526020016000208190612536612f07565b505050600860005a612546612d47565b73ffffffffffffffffffffffffffffffffffffffff1673ffffffffffffffffffffffffffffffffffffffff168152602001908152602001600020600661258a612ce4565b9080600181612597612ce4565b0180826125a2612f07565b50508091505060019003906000526020600020016000909190919091506125c7612f07565b50507fe670e4e82118d22a1f9ee18920455ebc958bae26a90a05d31d3378788b1b0e445a6125f3612d47565b8360405161260292919061376c565b60405180910390a15050565b600061261a8383612a6f565b81905092915050565b6000808284019050838110156126aa576040517f08c379a000000000000000000000000000000000000000000000000000000000815260040180806020018281038252601b8152602001807f536166654d6174683a206164646974696f6e206f766572666c6f770000000000815250602001915050604051809103906126a7612c76565b50505b8091505092915050565b60005a6126bf61306c565b60066126c9612ce4565b6040516020016126da9291906136d3565b60405160208183030381529060405280519060200120600681906126fc612f07565b505050600060096000600661270f612ce4565b815260200190815260200160002060000160006101000a8161272f612ce4565b8160ff0219169083600281111561274257fe5b02179061274d612f07565b505050600661275a612ce4565b905090565b60008060096000858152602001908152602001600020905060006127b482600101612788612ce4565b6127a68685600201612798612ce4565b612b5590919063ffffffff16565b612be490919063ffffffff16565b90506127d484836001016127c6612ce4565b61221d90919063ffffffff16565b8260010181906127e2612f07565b50505061280381836002016127f5612ce4565b61221d90919063ffffffff16565b826002018190612811612f07565b50505060008260030160005a612825612d47565b73ffffffffffffffffffffffffffffffffffffffff1673ffffffffffffffffffffffffffffffffffffffff1681526020019081526020016000208190612869612f07565b505050809250505092915050565b806002612882612ce4565b10156128e2576040517f08c379a0000000000000000000000000000000000000000000000000000000008152600401808060200182810382526022815260200180613dae60229139604001915050604051809103906128df612c76565b50505b806000808473ffffffffffffffffffffffffffffffffffffffff1673ffffffffffffffffffffffffffffffffffffffff168152602001908152602001600020612929612ce4565b1015612989576040517f08c379a0000000000000000000000000000000000000000000000000000000008152600401808060200182810382526025815260200180613d556025913960400191505060405180910390612986612c76565b50505b80600260008282612998612ce4565b0392505081906129a6612f07565b505050806000808473ffffffffffffffffffffffffffffffffffffffff1673ffffffffffffffffffffffffffffffffffffffff168152602001908152602001600020600082826129f4612ce4565b039250508190612a02612f07565b505050600073ffffffffffffffffffffffffffffffffffffffff168273ffffffffffffffffffffffffffffffffffffffff167fddf252ad1be2c89b69c2b068fc378daa952ba7f163c4a11628f55a4df523b3ef836040518082815260200191505060405180910390a35050565b80600260008282612a7e612ce4565b019250508190612a8c612f07565b505050806000808473ffffffffffffffffffffffffffffffffffffffff1673ffffffffffffffffffffffffffffffffffffffff16815260200190815260200160002060008282612ada612ce4565b019250508190612ae8612f07565b5050508173ffffffffffffffffffffffffffffffffffffffff16600073ffffffffffffffffffffffffffffffffffffffff167fddf252ad1be2c89b69c2b068fc378daa952ba7f163c4a11628f55a4df523b3ef836040518082815260200191505060405180910390a35050565b600080831415612b685760009050612bde565b6000828402905082848281612b7957fe5b0414612bd9576040517f08c379a0000000000000000000000000000000000000000000000000000000008152600401808060200182810382526021815260200180613d046021913960400191505060405180910390612bd6612c76565b50505b809150505b92915050565b6000808211612c64576040517f08c379a000000000000000000000000000000000000000000000000000000000815260040180806020018281038252601a8152602001807f536166654d6174683a206469766973696f6e206279207a65726f00000000000081525060200191505060405180910390612c61612c76565b50505b818381612c6d57fe5b04905092915050565b632a2a7adb598160e01b8152600481016020815285602082015260005b86811015612cb1578086015181604084010152602081019050612c93565b506020828760640184336000905af158600e01573d6000803e3d6000fd5b3d6001141558600a015760016000f35b505050565b6303daa959598160e01b8152836004820152602081602483336000905af158600e01573d6000803e3d6000fd5b3d6001141558600a015760016000f35b8051935060005b6040811015612d4257600081830152602081019050612d28565b505050565b6373509064598160e01b8152602081600483336000905af158600e01573d6000803e3d6000fd5b3d6001141558600a015760016000f35b8051935060005b6040811015612d9f57600081830152602081019050612d85565b505050565b638435035b598160e01b8152836004820152602081602483336000905af158600e01573d6000803e3d6000fd5b3d6001141558600a015760016000f35b8051935060005b6040811015612e0257600081830152602081019050612de8565b505050565b638540661f598160e01b8152612e46565b600081905081831115612e29578290505b92915050565b600081905081831015612e40578290505b92915050565b836004820152846024820152606060448201528660648201526084810160005b88811015612e81578088015181830152602081019050612e66565b506060828960a40184336000905af158600e01573d6000803e3d6000fd5b3d6001141558600a015760016000f35b815160408301513d6000853e8b8b82606087013350600060045af15059612ed68d3d612e2f565b8c01612ee28187612e18565b5b82811015612efa5760008152602081019050612ee3565b50839d5050505050505050565b6322bd64c0598160e01b8152836004820152846024820152600081604483336000905af158600e01573d6000803e3d6000fd5b3d6001141558600a015760016000f35b60005b6040811015612f6757600081830152602081019050612f4d565b505050565b6385979f76598160e01b8152612fab565b600081905081831115612f8e578290505b92915050565b600081905081831015612fa5578290505b92915050565b836004820152846024820152606060448201528760648201526084810160005b89811015612fe6578089015181830152602081019050612fcb565b506060828a60a40184336000905af158600e01573d6000803e3d6000fd5b3d6001141558600a015760016000f35b815160408301513d6000853e8c8c82606087013350600060045af1505961303b8e3d612f94565b8d016130478187612f7d565b5b8281101561305f5760008152602081019050613048565b50839e5050505050505050565b63bdbf8c36598160e01b8152602081600483336000905af158600e01573d6000803e3d6000fd5b3d6001141558600a015760016000f35b8051935060005b60408110156130c4576000818301526020810190506130aa565b505050565b6000813590506130d881613bb0565b92915050565b6000815190506130ed81613bd0565b92915050565b60008135905061310281613bf0565b92915050565b60008135905061311781613c10565b92915050565b60008151905061312c81613c10565b92915050565b60006020828403121561314d5760008061314a612c76565b50505b600061315b848285016130c9565b91505092915050565b600080604083850312156131805760008061317d612c76565b50505b600061318e858286016130c9565b925050602061319f858286016130c9565b9150509250929050565b6000806000606084860312156131c7576000806131c4612c76565b50505b60006131d5868287016130c9565b93505060206131e6868287016130c9565b92505060406131f786828701613108565b9150509250925092565b6000806040838503121561321d5760008061321a612c76565b50505b600061322b858286016130c9565b925050602061323c858286016130f3565b9150509250929050565b600080604083850312156132625760008061325f612c76565b50505b6000613270858286016130c9565b925050602061328185828601613108565b9150509250929050565b6000602082840312156132a6576000806132a3612c76565b50505b60006132b4848285016130de565b91505092915050565b6000602082840312156132d8576000806132d5612c76565b50505b60006132e6848285016130f3565b91505092915050565b6000806040838503121561330b57600080613308612c76565b50505b6000613319858286016130f3565b925050602061332a85828601613108565b9150509250929050565b60006020828403121561334f5760008061334c612c76565b50505b600061335d84828501613108565b91505092915050565b6000602082840312156133815760008061337e612c76565b50505b600061338f8482850161311d565b91505092915050565b60006133a4838361343b565b60208301905092915050565b6133b981613ad6565b82525050565b6133c881613a71565b82525050565b60006133d982613a2c565b6133e38185613a4f565b93506133ee83613a1c565b8060005b8381101561341f5781516134068882613398565b975061341183613a42565b9250506001810190506133f2565b5085935050505092915050565b61343581613a83565b82525050565b61344481613a8f565b82525050565b61345381613a8f565b82525050565b61346a61346582613a8f565b613b75565b82525050565b61347981613ae8565b82525050565b61348881613b0c565b82525050565b600061349982613a37565b6134a38185613a60565b93506134b3818560208601613b42565b6134bc81613b8b565b840191505092915050565b60006134d4601d83613a60565b91507f6261746368206465706f736974206e6f742079657420616c6c6f7765640000006000830152602082019050919050565b6000613514600e83613a60565b91507f6e6f7420656e6f756768204441490000000000000000000000000000000000006000830152602082019050919050565b6000613554601583613a60565b91507f6e6f7420656e6f75676820746f206465706f73697400000000000000000000006000830152602082019050919050565b6000613594602483613a60565b91507f63616e206e6f742065786563757465206261746368207769746864726177616c60008301527f20796574000000000000000000000000000000000000000000000000000000006020830152604082019050919050565b60006135fa601683613a60565b91507f6e6f7420656e6f75676820746f207769746864726177000000000000000000006000830152602082019050919050565b600061363a601b83613a60565b91507f63616e6e6f7420636c61696d207769746864726177616c2079657400000000006000830152602082019050919050565b600061367a601783613a60565b91507f7265717565737420657863656564732062616c616e63650000000000000000006000830152602082019050919050565b6136b681613acc565b82525050565b6136cd6136c882613acc565b613b7f565b82525050565b60006136df82856136bc565b6020820191506136ef8284613459565b6020820191508190509392505050565b600060208201905061371460008301846133bf565b92915050565b600060208201905061372f60008301846133b0565b92915050565b600060608201905061374a60008301866133b0565b61375760208301856133bf565b61376460408301846136ad565b949350505050565b600060408201905061378160008301856133b0565b61378e60208301846136ad565b9392505050565b60006060820190506137aa60008301866133b0565b6137b760208301856136ad565b6137c460408301846136ad565b949350505050565b60006040820190506137e160008301856133bf565b6137ee60208301846136ad565b9392505050565b6000602082019050818103600083015261380f81846133ce565b905092915050565b600060208201905061382c600083018461342c565b92915050565b6000602082019050613847600083018461344a565b92915050565b6000604082019050613862600083018561344a565b61386f60208301846136ad565b9392505050565b600060208201905061388b6000830184613470565b92915050565b60006060820190506138a6600083018661347f565b6138b360208301856136ad565b6138c060408301846136ad565b949350505050565b600060208201905081810360008301526138e2818461348e565b905092915050565b60006020820190508181036000830152613903816134c7565b9050919050565b6000602082019050818103600083015261392381613507565b9050919050565b6000602082019050818103600083015261394381613547565b9050919050565b6000602082019050818103600083015261396381613587565b9050919050565b60006020820190508181036000830152613983816135ed565b9050919050565b600060208201905081810360008301526139a38161362d565b9050919050565b600060208201905081810360008301526139c38161366d565b9050919050565b60006020820190506139df60008301846136ad565b92915050565b60006060820190506139fa60008301866136ad565b613a0760208301856133bf565b613a14604083018461344a565b949350505050565b6000819050602082019050919050565b600081519050919050565b600081519050919050565b6000602082019050919050565b600082825260208201905092915050565b600082825260208201905092915050565b6000613a7c82613aac565b9050919050565b60008115159050919050565b6000819050919050565b6000819050613aa782613b9c565b919050565b600073ffffffffffffffffffffffffffffffffffffffff82169050919050565b6000819050919050565b6000613ae182613b1e565b9050919050565b6000613af382613afa565b9050919050565b6000613b0582613aac565b9050919050565b6000613b1782613a99565b9050919050565b6000613b2982613b30565b9050919050565b6000613b3b82613aac565b9050919050565b60005b83811015613b60578082015181840152602081019050613b45565b83811115613b6f576000848401525b50505050565b6000819050919050565b6000819050919050565bfe5b6000601f19601f8301169050919050565b60038110613bad57613bac613b89565b5b50565b613bb981613a71565b8114613bcd57600080613bca612c76565b50505b50565b613bd981613a83565b8114613bed57600080613bea612c76565b50505b50565b613bf981613a8f565b8114613c0d57600080613c0a612c76565b50505b50565b613c1981613acc565b8114613c2d57600080613c2a612c76565b50505b5056fe43616e2774207472616e736665722066726f6d207468652064657369726564206163636f756e74206265636175736520796f7520646f6e2774206861766520656e6f756768206f6620616e20616c6c6f77616e63652e4f564d5f58434841494e3a206d657373656e67657220636f6e747261637420756e61757468656e7469636174656443616e2774207472616e736665722066726f6d207468652064657369726564206163636f756e74206265636175736520697420646f65736e2774206861766520656e6f7567682062616c616e63652e536166654d6174683a206d756c7469706c69636174696f6e206f766572666c6f774f564d5f58434841494e3a2077726f6e672073656e646572206f662063726f73732d646f6d61696e206d6573736167654163636f756e7420646f6573206e6f74206861766520656e6f75676820746f206275726e2e596f7520646f6e2774206861766520656e6f7567682062616c616e636520746f206d616b652074686973207472616e736665722143616e2774206275726e206d6f7265207468616e20746f74616c20737570706c792e506f70636f726e20444149204c32205969656c644f7074696d697a6572506f6f6c",
  "linkReferences": {},
  "deployedLinkReferences": {}
}